:020000040800F2
:1000000000000320699700086597000865970008BD
:1000100065970008659700086597000800000000D4
:1000200000000000000000000000000001D50008F2
:10003000659700080000000071D50008D5D50008BC
:1000400065970008659700086597000865970008A0
:100050006597000865970008659700086597000890
:100060006597000865970008659700086597000880
:100070006597000865970008659700086597000870
:100080006597000865970008659700086597000860
:100090006597000865970008659700086597000850
:1000A0006597000865970008659700086597000840
:1000B00065970008798C0008659700086597000827
:1000C0006597000865970008659700086597000820
:1000D0006597000865970008998C0008B98C00089E
:1000E0006597000865970008659700086597000800
:1000F00065970008659700086597000865970008F0
:1001000065970008659700086597000865970008DF
:10011000A9940008C994000865970008659700082D
:1001200065970008659700086597000865970008BF
:1001300065970008659700086597000865970008AF
:10014000659700086597000865970008659700089F
:10015000659700086597000865970008659700088F
:10016000659700086597000865970008659700087F
:100170006597000865970008659700080000000073
:10018000659700086597000865970008659700085F
:10019000659700086597000865970008659700084F
:0C01A00065970008659700086597000847
:1001C0000348044B834202D0034B03B118477047E6
:1001D000F8060020F8060020000000000548064B45
:1001E0001B1AD90F01EBA301491002D0034B03B135
:1001F00018477047F8060020F806002000000000AD
:1002000010B5064C237843B9FFF7DAFF044B13B15E
:100210000448AFF300800123237010BDF8060020CE
:1002200000000000B0E1000808B5044B1BB1044910
:100230000448AFF30080BDE80840CFE700000000AD
:10024000FC060020B0E1000881F0004102E000BFA0
:1002500083F0004330B54FEA41044FEA430594EA86
:10026000050F08BF90EA020F1FBF54EA000C55EAC1
:10027000020C7FEA645C7FEA655C00F0E2804FEA92
:100280005454D4EB5555B8BF6D420CDD2C4480EA74
:10029000020281EA030382EA000083EA010180EAA4
:1002A000020281EA0303362D88BF30BD11F0004FF2
:1002B0004FEA01314FF4801C4CEA113102D0404228
:1002C00061EB410113F0004F4FEA03334CEA133363
:1002D00002D0524263EB430394EA050F00F0A7807B
:1002E000A4F10104D5F1200E0DDB02FA0EFC22FA76
:1002F00005F2801841F1000103FA0EF2801843FA6A
:1003000005F359410EE0A5F120050EF1200E012A5A
:1003100003FA0EFC28BF4CF0020C43FA05F3C01898
:1003200051EBE37101F0004507D54FF0000EDCF111
:10033000000C7EEB00006EEB0101B1F5801F1BD3BA
:10034000B1F5001F0CD349085FEA30004FEA3C0CBE
:1003500004F101044FEA445212F5800F80F09A80B4
:10036000BCF1004F08BF5FEA500C50F1000041EBB8
:10037000045141EA050130BD5FEA4C0C404141EBBC
:100380000101013C28BFB1F5801FE9D291F0000FB7
:1003900004BF01460020B1FA81F308BF2033A3F166
:1003A0000B03B3F120020CDA0C3208DD02F1140C5D
:1003B000C2F10C0201FA0CF021FA02F10CE002F198
:1003C0001402D8BFC2F1200C01FA02F120FA0CFC91
:1003D000DCBF41EA0C019040E41AA2BF01EB0451DA
:1003E000294330BD6FEA04041F3C1CDA0C340EDCD8
:1003F00004F11404C4F1200220FA04F001FA02F31B
:1004000040EA030021FA04F345EA030130BDC4F1D8
:100410000C04C4F1200220FA02F001FA04F340EACD
:100420000300294630BD21FA04F0294630BD94F07E
:10043000000F83F4801306BF81F480110134013D65
:100440004EE77FEA645C18BF7FEA655C29D094EAD6
:10045000050F08BF90EA020F05D054EA000C04BF54
:100460001946104630BD91EA030F1EBF002100203F
:1004700030BD5FEA545C05D14000494128BF41F0DE
:10048000004130BD14F580043CBF01F5801130BD42
:1004900001F0004545F0FE4141F470014FF00000CD
:1004A00030BD7FEA645C1ABF194610467FEA655C7E
:1004B0001CBF0B46024650EA013406BF52EA033520
:1004C00091EA030F41F4002130BD00BF90F0000F0E
:1004D00004BF0021704730B54FF4806404F132044A
:1004E0004FF000054FF0000150E700BF90F0000F03
:1004F00004BF0021704730B54FF4806404F132042A
:1005000010F0004548BF40424FF000013EE700BFF9
:1005100042004FEAE2014FEA31014FEA02701FBF89
:1005200012F07F4393F07F4F81F06051704732F0BB
:100530007F4208BF704793F07F4F04BF41F4002112
:10054000704730B54FF4607401F0004521F0004170
:100550001CE700BF50EA010208BF704730B54FF0FA
:1005600000050AE050EA010208BF704730B511F0FB
:10057000004502D5404261EB41014FF4806404F133
:1005800032045FEA915C3FF4D8AE4FF003025FEAB9
:10059000DC0C18BF03325FEADC0C18BF033202EB3D
:1005A000DC02C2F1200300FA03FC20FA02F001FA97
:1005B00003FE40EA0E0021FA02F11444BDE600BF3A
:1005C00070B54FF0FF0C4CF4E06C1CEA11541DBFE9
:1005D0001CEA135594EA0C0F95EA0C0F00F0DEF8B4
:1005E0002C4481EA030621EA4C5123EA4C5350EA99
:1005F000013518BF52EA033541F4801143F48013EA
:1006000038D0A0FB02CE4FF00005E1FB02E506F07A
:100610000042E0FB03E54FF00006E1FB03569CF0CF
:10062000000F18BF4EF0010EA4F1FF04B6F5007FD5
:1006300064F5407404D25FEA4E0E6D4146EB060647
:1006400042EAC62141EA55514FEAC52040EA5E50D0
:100650004FEACE2EB4F1FD0C88BFBCF5E06F1ED87A
:10066000BEF1004F08BF5FEA500E50F1000041EBB1
:10067000045170BD06F0004646EA010140EA02005E
:1006800081EA0301B4EB5C04C2BFD4EB0C0541EA80
:10069000045170BD41F480114FF0000E013C00F395
:1006A000AB8014F1360FDEBF002001F0004170BDB9
:1006B000C4F10004203C35DA0C341BDC04F11404D2
:1006C000C4F1200500FA05F320FA04F001FA05F25E
:1006D00040EA020001F0004221F0004110EBD3702B
:1006E00021FA04F642EB06015EEA430E08BF20EA57
:1006F000D37070BDC4F10C04C4F1200500FA04F3FA
:1007000020FA05F001FA04F240EA020001F000418B
:1007100010EBD37041F100015EEA430E08BF20EAFE
:10072000D37070BDC4F1200500FA05F24EEA020E46
:1007300020FA04F301FA05F243EA020321FA04F075
:1007400001F0004121FA04F220EA020000EBD3702C
:100750005EEA430E08BF20EAD37070BD94F0000F2C
:100760000FD101F00046400041EB010111F4801F60
:1007700008BF013CF7D041EA060195F0000F18BF11
:10078000704703F00046520043EB030313F4801F4D
:1007900008BF013DF7D043EA0603704794EA0C0F07
:1007A0000CEA135518BF95EA0C0F0CD050EA41061D
:1007B00018BF52EA4306D1D181EA030101F000419A
:1007C0004FF0000070BD50EA410606BF10461946C2
:1007D00052EA430619D094EA0C0F02D150EA0136CE
:1007E00013D195EA0C0F05D152EA03361CBF10460F
:1007F00019460AD181EA030101F0004141F0FE41AE
:1008000041F470014FF0000070BD41F0FE4141F431
:10081000780170BD70B54FF0FF0C4CF4E06C1CEA31
:1008200011541DBF1CEA135594EA0C0F95EA0C0FE6
:1008300000F0A7F8A4EB050481EA030E52EA0335A1
:100840004FEA013100F088804FEA03334FF08055C2
:1008500045EA131343EA12634FEA022245EA1115EF
:1008600045EA10654FEA00260EF000419D4208BFA0
:10087000964244F1FD0404F5407402D25B084FEA4D
:100880003202B61A65EB03055B084FEA32024FF4F9
:1008900080104FF4002CB6EB020E75EB030E22BF56
:1008A000B61A754640EA0C005B084FEA3202B6EB16
:1008B000020E75EB030E22BFB61A754640EA5C00C5
:1008C0005B084FEA3202B6EB020E75EB030E22BF55
:1008D000B61A754640EA9C005B084FEA3202B6EB56
:1008E000020E75EB030E22BFB61A754640EADC0015
:1008F00055EA060E18D04FEA051545EA16754FEA77
:1009000006164FEAC30343EA52734FEAC2025FEA94
:100910001C1CC0D111F4801F0BD141EA00014FF023
:1009200000004FF0004CB6E711F4801F04BF0143F4
:100930000020B4F1FD0C88BFBCF5E06F3FF6AFAE10
:10094000B5EB030C04BFB6EB020C5FEA500C50F1A0
:10095000000041EB045170BD0EF0004E4EEA113123
:1009600014EB5C04C2BFD4EB0C0541EA045170BD2A
:1009700041F480114FF0000E013C90E645EA060E6E
:100980008DE60CEA135594EA0C0F08BF95EA0C0F9C
:100990003FF43BAF94EA0C0F0AD150EA01347FF4E4
:1009A00034AF95EA0C0F7FF425AF104619462CE7BB
:1009B00095EA0C0F06D152EA03353FF4FDAE10461E
:1009C000194622E750EA410618BF52EA43067FF46F
:1009D000C5AE50EA41047FF40DAF52EA43057FF4FF
:1009E000EBAE12E74FF0FF3C06E000BF4FF0010C0A
:1009F00002E000BF4FF0010C4DF804CD4FEA410C6E
:100A00007FEA6C5C4FEA430C18BF7FEA6C5C1BD03A
:100A100001B050EA410C0CBF52EA430C91EA030FBB
:100A200002BF90EA020F0020704710F1000F91EA18
:100A3000030F58BF994208BF90422CBFD8176FEAE6
:100A4000E37040F0010070474FEA410C7FEA6C5CB4
:100A500002D150EA013C07D14FEA430C7FEA6C5CBB
:100A6000D6D152EA033CD3D05DF8040B704700BFE7
:100A70008446104662468C461946634600E000BF35
:100A800001B5FFF7B7FF002848BF10F1000F01BD07
:100A90004DF808EDFFF7F4FF0CBF012000205DF8D2
:100AA00008FB00BF4DF808EDFFF7EAFF34BF012057
:100AB00000205DF808FB00BF4DF808EDFFF7E0FFF0
:100AC00094BF012000205DF808FB00BF4DF808ED41
:100AD000FFF7CEFF94BF012000205DF808FB00BFA8
:100AE0004DF808EDFFF7C4FF34BF012000205DF88A
:100AF00008FB00BF4FEA410212F5001215D211D5D2
:100B00006FF47873B3EB625212D94FEAC12343F00A
:100B1000004343EA505311F0004F23FA02F018BF8C
:100B2000404270474FF00000704750EA013005D155
:100B300011F0004008BF6FF0004070474FF0000018
:100B4000704700BF4FEA4102B2F1E04324BFB3F562
:100B5000001CDCF1FE5C0DD901F0004C4FEAC00234
:100B60004CEA5070B2F1004F40EB830008BF20F018
:100B70000100704711F0804F21D113F13872BCBFD2
:100B800001F00040704741F480114FEA5252C2F127
:100B90001802C2F1200C10FA0CF320FA02F018BF70
:100BA00040F001004FEAC1234FEAD32303FA0CFCC3
:100BB00040EA0C0023FA02F34FEA4303CCE77FEA52
:100BC000625307D150EA01331EBF4FF0FE4040F49C
:100BD0004000704701F0004040F0FE4040F400004B
:100BE000704700BF830730B547D0541E002A3ED05F
:100BF000CAB2034601E0013C39D303F8012B9D073B
:100C0000F9D1032C2CD9CDB205EB05250F2C05EB22
:100C1000054535D9A4F1100222F00F0C03F1100E96
:100C2000E6444FEA121C1A46C2E90055C2E90255D1
:100C300010327245F8D10CF1010214F00C0F03EBE5
:100C4000021204F00F0C13D0ACF1040323F00303E1
:100C50000433134442F8045B9342FBD10CF00304C9
:100C60002CB1C9B21C4403F8011BA342FBD130BD17
:100C700064461346002CF4D1F9E703461446C0E756
:100C80001A46A446E0E700BF000000000000000094
:100C90000000000000000000000000000000000054
:100CA00002780B78012A28BF9A4240F0D8806DE97B
:100CB000044540EA0104CDE902676FF0000C4FEAF9
:100CC00044721AB380EA010414F0070F6BD100F0EC
:100CD000070420F0070004F0030521F007014FEAA4
:100CE000C505F0E8042314F0040FF1E804670CFADA
:100CF00005F462EA040266EA04060BD063EA040320
:100D0000624667EA0407664604E000BFF0E8042391
:100D1000F1E8046782FA4CF582EA0604A4FA8CF43E
:100D20006CBB83FA4CF583EA0705A5FA8CF595B9F7
:100D300050E9022351E9026782FA4CF582EA06047F
:100D4000A4FA8CF483FA4CF583EA0705A5FA8CF52E
:100D50002543DBD09CB92DBAB5FA85F424F00704FD
:100D600027FA04F1DDE9026723FA04F303F0FF0038
:100D700001F0FF01FDE80445A0EB0100704724BA33
:100D8000B4FA84F424F0070426FA04F1DDE90267DA
:100D900022FA04F202F0FF0001F0FF01FDE8044531
:100DA000A0EB0100704714F0030F3CD110F00304D6
:100DB00028D150F8082B51F8083B82FA4CF582EA0A
:100DC0000305A5FA8CF55DB950F8042C51F8043CE4
:100DD00082FA4CF582EA0305A5FA8CF5002DE8D0DD
:100DE0002DBAB5FA85F424F0070423FA04F122FAA7
:100DF00004F202F0FF0001F0FF01FDE80445A0EB62
:100E0000010070474FEAC40420F0030050F8082B9B
:100E100021F0030151F8083B0CFA04F462EA0402E1
:100E200063EA0403C9E710F003041DD0A1EB040139
:100E300020F00300E40750F8042B06D012D28B7880
:100E40005FFAA2F4E41A06D12BB1CB785FFAB2F4C0
:100E5000E41A00D133B920465DF8104B7047A2EB7D
:100E60000300704701F1040150F8042BCC0721F076
:100E7000030151F8043B48D824D222F07F4482FA7F
:100E80004CF594EA1325A5FA8CF50AD165B951F809
:100E9000043B84EA0204B4EB036F0ED150F8042B38
:100EA000EBE74FEA132355E035F07F454DD1087845
:100EB000FDE80445C0F1000070474FEA126203F0FC
:100EC000FF0347E002EA1C4482FA4CF594EA13451A
:100ED000A5FA8CF50AD165B951F8043B84EA0204FD
:100EE000B4EB034F0CD150F8042BEBE74FEA13435C
:100EF00030E015EA1C4528D10B884FEA124229E060
:100F00004FEA124203EA1C4324E002F0FF0482FA93
:100F10004CF594EA1365A5FA8CF50AD165B951F838
:100F2000043B84EA0204B4EB032F09D150F8042BEC
:100F3000EBE74FEA13630DE015F0FF0F05D10B68E7
:100F40004FEA122223F07F4304E04FF00000FDE857
:100F50000445704712BA1BBA82FA4CF482EA0304C1
:100F6000A4FA8CF5B5FA85F402FA04F203FA04F354
:100F70004FEA1260FDE80445A0EB1360704700BF24
:100F800070B59AB013460A4E0A466FF000410291BE
:100F90000591084903910446002530681995694672
:100FA0000094049401F064FF009B1D701AB070BDA2
:100FB000000000200802FFFF10B59AB00024009145
:100FC00004916FF000410291059105490391694632
:100FD000199401F04DFF009B1C701AB010BD00BFAA
:100FE0000802FFFF032A30B415D941EA0004A40720
:100FF00084460B4604D0541E0FE0043A032A08D955
:101000001946604653F8044B5CF8045BA542F4D0E3
:10101000F1E760461946541E7AB1431E01390219A0
:1010200001E09A4209D013F8010F11F801CF604591
:10103000F7D0A0EB0C0030BC7047002030BC7047EC
:10104000844641EA000313F003036DD1403A41D3D3
:1010500051F8043B40F8043B51F8043B40F8043B92
:1010600051F8043B40F8043B51F8043B40F8043B82
:1010700051F8043B40F8043B51F8043B40F8043B72
:1010800051F8043B40F8043B51F8043B40F8043B62
:1010900051F8043B40F8043B51F8043B40F8043B52
:1010A00051F8043B40F8043B51F8043B40F8043B42
:1010B00051F8043B40F8043B51F8043B40F8043B32
:1010C00051F8043B40F8043B51F8043B40F8043B22
:1010D000403ABDD2303211D351F8043B40F8043BC2
:1010E00051F8043B40F8043B51F8043B40F8043B02
:1010F00051F8043B40F8043B103AEDD20C3205D3D2
:1011000051F8043B40F8043B043AF9D2043208D0C9
:10111000D2071CBF11F8013B00F8013B01D30B883B
:1011200003806046704700BF082A13D38B078DD019
:1011300010F003038AD0C3F10403D21ADB071CBFEB
:1011400011F8013B00F8013B80D331F8023B20F855
:10115000023B7BE7043AD9D3013A11F8013B00F88E
:10116000013BF9D20B7803704B7843708B78837016
:101170006046704770B50F4B0F4DAB42A3EB0506B1
:1011800007D0B610002455F8043B01349847A64216
:10119000F9D80DF00DF8094D094B5E1BAB424FEA33
:1011A000A60606D0002455F8043B01349847A64211
:1011B000F9D870BDA4FD0008A4FD0008A4FD000836
:1011C000ACFD000800207047024A0349034800F0C4
:1011D00083BB00BF28010020555D000808000020E7
:1011E0000C4B4168994210B5044601D004F0B2FDA1
:1011F000A168094B994202D0204604F0ABFDE1689A
:10120000064B994204D02046BDE8104004F0A2BD30
:1012100010BD00BF140700207C070020E407002059
:10122000002070472DE9F8432A4C2B49DFF8BC9089
:10123000DFF8BC80294FC4F83811002504230822A8
:10124000294604F15C00264EE360C4E90055C4E978
:101250000455A5606566A561FFF7C4FC214B636773
:101260000822294604F1C400C4E90749C4E90987F2
:10127000C4E91A55C4E91E552567C4F8CC50C4F812
:101280008050E662FFF7AEFC174BC4F8DC3029460D
:1012900004F16803082204F59670C4F88430C4E9A8
:1012A0002298C4E92476C4E93455C4E93855C4F811
:1012B000D850C4F83451C4F8E850FFF793FC04F157
:1012C000D003C4E93C98C4E93E76C4F8EC30BDE8EC
:1012D000F88300BF14070020C9110008695E0008E8
:1012E0008D5E00080900010012000200015E000886
:1012F000295E0008F8B5254BD3F838310646002B97
:101300003CD0234FD7E90134013B04D51DE05A1CE2
:1013100004F1680419D0B4F90C50013B002DF6D14A
:101320001C4BE360C4E90155C4E9045565662560BA
:10133000A5610822294604F15C00FFF753FCC4E9CB
:101340000C55C4E911552046F8BD3D680DB12F4636
:10135000D8E74FF4D671304603F0C0F8044680B1A8
:101360000423C0E900530C302946A0604FF4D0722A
:101370002546FFF737FC3C602F46C3E7FFF752FFD7
:10138000BFE70C2338603360DDE700BF140700209F
:10139000280100200100FFFF436B03B17047044B9D
:1013A000044AD3F838314263002BF7D13AE700BF43
:1013B00014070020E1110008704700BF704700BF0C
:1013C000024A0349002000F087BA00BF280100202C
:1013D000C5110008024A0349002000F07DBA00BF91
:1013E000280100202112000870B504468AB0084682
:1013F0000D4600F005FA164E626B07900121431866
:10140000CDE90861022006A903910695A16805931C
:101410000490A2B1B1F90C204B6E900405D442F4B3
:10142000005223F400538A814B669B040DD403AA17
:10143000204600F017F840B90A200AB070BD2046D7
:101440000191FFF7A9FF0199E4E74FF0FF30F4E7BE
:10145000D4E50008024B01461868FFF7C5BF00BF7E
:10146000000000209368002B00F0F8802DE9F04F79
:10147000B1F90CC01CF0080F83B0904681460C46B1
:1014800031D00B697BB31CF00207D8F8006038D06C
:101490000027D4F824B0E169DFF8C4A23D465545E1
:1014A0002B463A4628BF53464846C5B1D847002880
:1014B00040F3CA80D8F808301B1A07442D1AC8F820
:1014C0000830002B00F0B68055452B46D4F824B0E8
:1014D000E16928BF53463A464846002DE6D1D6E991
:1014E00000750836DBE72146484604F079FA002803
:1014F00040F0AF80B4F90CC0D8F800601CF00207CF
:10150000C6D11CF0010A63D12368A168574618466A
:101510008B46002F58D01CF4007F00F0B580B942F4
:101520000A4600F2E1801CF4906F2FD021696269B5
:101530005D1A02EB420202EBD2726B1C52103B446A
:10154000934292BF93469B461A461CF4806F00F06C
:10155000EA801146484602F0C1FF002800F0F980F9
:101560002A4621690090FFF76BFDA289009B22F4B7
:10157000906242F08002A2815819ABEB0505C4F8D5
:1015800014B02361A5602060BB463A4651460092E4
:1015900002F024FFA1682368009AA1EB0B011A4412
:1015A0003D46A16022600027D8F808305B1BAA44A2
:1015B000C8F80830002B3DD02368A168B4F90CC0EE
:1015C00018468B46002FA6D1D6E900A708369EE71D
:1015D0003846BB463D460097002D41D0002846D0F6
:1015E000009A2068A168D4E90473AA4228BF2A4659
:1015F000B84204D901EB030A524500F385809342B7
:1016000075DCE169676A5A464846B847B0F1000A96
:101610001ADD009BB3EB0A0300930FD00120D8F82A
:101620000830A3EB0A03D344A5EB0A05C8F8083039
:10163000002BD1D1002003B0BDE8F08F21464846F1
:1016400002F092FE0028EAD0B4F90C3043F04003D7
:10165000A3814FF0FF3003B0BDE8F08F002070474A
:10166000756833460836002DFAD0D3F800B02A4604
:101670000A21584601F0ACFB002867D00130A0EBEE
:101680000B0300931A46ACE722699A4214D36269AD
:10169000BA4211D86FF00043BB4228BF3B46656A8F
:1016A00093FBF2F3E16902FB03F348465246A84775
:1016B000051EC9DD7F1B77E7B94228BF39460D46B5
:1016C00018460A46514602F089FEA1682368491B64
:1016D0002B44A16023600029ECD12146484602F04A
:1016E00043FE0028E6D0AFE7BB463A464EE75946F0
:1016F000019202F073FE019AA3689B1AA36023680B
:1017000013442360924684E75946524602F066FE2F
:101710002368534423602146484602F025FE0028F2
:101720003FF477AF90E7484604F0E6FB0346002815
:101730007FF422AF2169484604F010FAB4F90C3066
:101740000C22C9F8002023F080037FE76A1C009276
:1017500047E70C22B4F90C30C9F8002076E700BF47
:1017600000FCFF7F002301461A46184604F092BB96
:101770000EB400B582B003AB816853F8042B01931B
:1017800000F0CEF802B05DF804EB03B0704700BF84
:101790000FB400B5074983B004AB086853F8042BB5
:1017A0008168019300F0BCF803B05DF804EB04B06D
:1017B000704700BF0000002038B5074D074C2C1BB8
:1017C000A41005D0013C55F8043D9847002CF9D1F0
:1017D000BDE838400CF0F2BCB0FD0008ACFD0008DC
:1017E00000000000000000000000000000000000F9
:1017F00000000000000000000000000000000000E9
:1018000030B490F800F020F007016FF0000C10F0F9
:10181000070491F820F040F048804FF000046FF08A
:101820000700D1E9002391F840F000F1080082FAA6
:101830004CF2A4FA8CF283FA4CF3A2FA8CF34BBB71
:10184000D1E9022382FA4CF200F10800A4FA8CF2EA
:1018500083FA4CF3A2FA8CF3E3B9D1E9042382FAB8
:101860004CF200F10800A4FA8CF283FA4CF3A2FACD
:101870008CF37BB9D1E9062301F1200182FA4CF205
:1018800000F10800A4FA8CF283FA4CF3A2FA8CF36C
:10189000002BC6D0002A04BF04301A4612BAB2FA8E
:1018A00082F200EBD20030BC7047D1E9002304F093
:1018B0000305C4F100004FEAC50514F0040F91F8C8
:1018C00040F00CFA05F562EA05021CBF63EA050365
:1018D00062464FF00004AAE72DE9F8430746884620
:1018E00016464FF00009D6E90154013D10D4A389F2
:1018F000012B08D9B4F90E3001332146384602D005
:10190000C04749EA0009013D6B1C04F16804EED1AF
:101910003668002EE7D14846BDE8F8830000000095
:101920002DE9F04FBFB01C4604919146099305463E
:10193000089005F059FA036810931846FFF760FF06
:101940000F901DB16B6B002B01F020800499B1F951
:101950000C204B6E900405D442F4005223F4005343
:101960008A814B669F0401F13E81049AB2F90C30E2
:101970001E0740F1DD801269002A00F0D98003F0D3
:101980001A030A2B00F0E3809FED817B0023CDE951
:101990002233CDE911338DED0C7B2EAA0E932192CB
:1019A00092460693CB469BF80030002B00F06481F2
:1019B0005C4604E014F8013F002B00F04181252B28
:1019C000F8D1B4EB0B0540F03E812378002B00F0FA
:1019D00053814FF000038DF8673000276378059737
:1019E00004F1010B4FF0FF390BF1010B9846A8F100
:1019F0002003582B00F24D81DFE813F083024B01E6
:101A00004B017E024B014B014B014B014B014B0142
:101A1000460278024B01510256024B0173025900F3
:101A200059005900590059005900590059005900EE
:101A30004B014B014B014B014B014B014B014B0146
:101A40004B014B016800C6014B01C6014B014B0124
:101A50004B014B01AE024B014B01B8004B014B0156
:101A60004B014B014B01CE004B014B0152064B0188
:101A70004B014B014B014B014B014B014B014B0106
:101A80004B01A0026A00C601C601C6019B026A00A2
:101A90004B014B018E024B01EA02BA00D902D4027B
:101AA0004B01B3024B01D0004B014B017206A8F170
:101AB000300300221BF8018B02EB820203EB42028F
:101AC000A8F13003092BF5D9059290E747F01007EC
:101AD000BD0640F1B281099B073323F007031A4684
:101AE000596852F8083B09920A460029C0F2B781AA
:101AF000B9F1000F9DF86740C0F2B88127F080016E
:101B0000029153EA020140F0B0810121B9F1000FC6
:101B100040F05383002940F0F18417F0010307934C
:101B200000F0318530238DF8B7300DF1B70573E043
:101B3000049D0898294603F053FF002841F0538084
:101B4000B5F90C3003F01A030A2B7FF41DAF049B88
:101B5000B3F90E30002BFFF617AF0499089823460F
:101B60004A463FB0BDE8F04F01F0FAB847F0100721
:101B700017F0200200F05281099B073323F007037E
:101B800019465A6851F8083B0991002114E000BF3A
:101B9000000000000000000047F0100717F02002CE
:101BA00000F03281099B073323F0070319465A6876
:101BB00051F8083B099101210024B9F1000F8DF87B
:101BC000674006DB27F08000029053EA02009DD0B8
:101BD000029F012900F04A81022900F0F8822EAD0F
:101BE00003F00701DB0843EA4273D208303153EABD
:101BF0000206284605F8011DF2D1FB0740F1F582E7
:101C0000302900F0F2823023023805F8013C2EAB77
:101C10001B1A029707930546079B4B45B8BF4B46D7
:101C2000039300230B9314B1039B01330393029B93
:101C300013F002033FD0039B0233039302233AE0E5
:101C4000B4EB0B0518D0239B2B442393229B013329
:101C5000072BCAE900B5229305DC0AF1080A069BA6
:101C60002B440693B1E60499089821AA04F028FBB6
:101C700030B90DF1B80AF2E7239B002B40F004873E
:101C8000049B9B895B0600F1AE8706983FB0BDE8D8
:101C9000F08FB8F1000FEFD000238DF867300123EB
:101CA0008DF890800393079324AD4FF000090297BD
:101CB000CDF82C904B46029A239C12F084020A9293
:101CC00005D1059A0399561A002E00F3FE829DF85D
:101CD00067208AB1229A0DF1670101320134CAF8F6
:101CE0000010072A4FF0010123942292CAF8041031
:101CF00000F326830AF1080A83B1229A1AA9013255
:101D00000234CAF80010072A4FF0020123942292ED
:101D1000CAF8041000F322830AF1080A0A9B802BF8
:101D200000F0CA81079BA9EB0306002E00F3068290
:101D3000029BDE0500F15981079BCAF804301C4460
:101D4000229BCAF800500133072B2394229300F3FF
:101D500065820AF1080A029B5A0705D5059B039A7A
:101D60009D1A002D00F30683DDE9052303998A42BD
:101D7000ACBF9B185B180693002C40F03B820023FD
:101D800022930DF1B80A0EE6099B073323F00703EF
:101D9000B3EC027B55EC174B099325F000431593E8
:101DA0008DED147ADDE91401BD4B4FF0FF328DED5E
:101DB0000C7B06F09FF8002840F0F083DDE9140169
:101DC000B74B4FF0FF32FEF777FE002840F0E68376
:101DD0000022002320462946FEF764FE002840F03A
:101DE0003D869DF86740AF4D27F080030293AE4BD0
:101DF000B8F1470FD8BF1D464FF0000903230393E6
:101E00000793CDF82C900EE7099951F8043B0991FE
:101E100017F0100100F0BA830121CDE6099951F8BD
:101E2000043B099117F010017FF4AFAE17F04002A8
:101E30003FF4ABAE0A469BB2A7E6099AFC0652F8FD
:101E4000043B099206D4780604D543F3C032114608
:101E50001BB24AE6DA1711460029BFF649AE5B42CB
:101E600062EB42022D240121A7E6029F0A2B72F1A8
:101E7000000180F0018530338DF8B73001230297DF
:101E800007930DF1B705C7E6099B53F8042B05929C
:101E9000002A80F27383059A0993524205929BF8B7
:101EA000003047F004079FE55A4612F8018BB8F15D
:101EB0002A0F00F02287A8F13003092B98BF4FF0BA
:101EC000000900F2A18612F8018B09EB890903EBE6
:101ED0004909A8F13003092BF5D949EAE979934674
:101EE00085E59BF8003047F080077DE52B238DF8D2
:101EF00067309BF8003077E59BF8003047F001072A
:101F000072E59DF867209BF80030002A7FF46CADE5
:101F100020228DF8672067E59BF800306C2B03BF0B
:101F20009BF8013047F020070BF1010B47F0100739
:101F30005AE59BF8003047F0400755E5099B002221
:101F40008DF8672053F8042B099301238DF8902016
:101F50000393079324ADA8E69BF8003047F00807E9
:101F600042E5099C54F8045B00268DF86760002D5B
:101F700000F0C583B9F1000FC0F21A854A46314618
:101F8000284600F025FF002800F03286431B079307
:101F900023EAE3730994B1469DF8674002970393DF
:101FA0000B9640E69BF8003047F020071CE5099AA5
:101FB00052F8043B099247F63002ADF868203B4ADC
:101FC000119247F00207002202214FF07808F3E552
:101FD000BD0640F15C83099B069A1B681A60D21704
:101FE0005A60099B04330993DDE4B8F1650F40F3AF
:101FF0002181DDE90C0100220023FEF749FD0028C4
:1020000000F0F581229B2A4ACAF8002001330134EE
:102010000122072B23942293CAF8042000F3A984F9
:102020000AF1080A1B9B0E9A934280F2A2820F9B30
:10203000109A1C44CAE90023229B23940133072BE6
:10204000229300F350830AF1080A0E9B5D1E002DB7
:102050007FF781AE102D229B164F40F3D480DDF820
:102060002080DDF81090102605E00AF1080A103DE6
:10207000102D40F3C88001331034072BCAE90076D5
:10208000CDE92234F1DD21AA4946404604F018F991
:1020900000287FF4F5ADDDE922340DF1B80AE6E75A
:1020A000FFFFEF7F10E700080CE7000830E70008AB
:1020B0004CE70008D8E10008059B039A9E1A002E01
:1020C0007FF730AE102E229BAF4F24DD52462146C3
:1020D000AA46089C049D04E0103E102E02F108025E
:1020E00016DD013310311020072BCDE922311760A6
:1020F0005060F1DD21AA2946204604F0E1F80028CD
:102100007FF4BEAD103E102EDDE922312EAAE8DCB0
:1021100055460C46924601333444072BCDE9223410
:10212000CAF80070CAF8046000F33584079BA9EB75
:102130000306002E0AF1080A7FF7FAAD102E229B43
:10214000914F2CDD52462146B246089C2E464FF058
:102150001009049D06E0AAF1100ABAF1100F02F16D
:10216000080218DD013388481031072BC2E9000945
:10217000CDE92231EFDD21AA2946204604F0A0F85E
:1021800000287FF47DADAAF1100ABAF1100FDDE945
:1021900022312EAAE6DC35460C46564692460133DD
:1021A0003444072BCDE92234CAF80070CAF8046021
:1021B00000F3D2810AF1080ABAE50129029F4FF023
:1021C00000033FF458AE02291A467FF408AD119877
:1021D0002EAD03F00F011B09415C05F8011D43EA18
:1021E0000273120953EA0201F3D12EAB5B1B029773
:1021F000079311E50499089821AA04F061F80028D2
:102200003FF4BDAD3CE501332C44072BCAF8007008
:10221000CAF80450CDE922347FF79BAD04990898A1
:1022200021AA04F04DF800287FF42AAD239C0DF17B
:10223000B80A90E50E9B229E012B04F1010406F1E1
:1022400001060AF1080840F33E810123072ECDE97B
:102250002264CAF80050CAF8043000F3F3820F9BDE
:10226000109A01361C44072EC8E90023CDE92264E8
:1022700000F3F58208F108080E9BDDE90C0103F17B
:10228000FF3900220023FEF703FC002840F03B81C9
:10229000013601354C44072ECDE92264C8F80050C0
:1022A000C8F8049000F31D8108F10808129BC8F8D3
:1022B000043001361C44072E1DABCDE92264C8F85A
:1022C0000030ABDC08F1080A45E5102E229A2F4FAA
:1022D00028DD51462046CA46089C1393A946049D12
:1022E00004E0103E102E01F1080116DD013210301D
:1022F0001023072ACDE922200F604B60F1DD21AACF
:102300002946204603F0DCFF00287FF4B9AC103EDC
:10231000102EDDE922202EA9E8DC139B4D46044651
:10232000D1468A4601323444072ACDE92224CAF82C
:102330000070CAF8046000F3D9820AF1080AC6E402
:1023400004990898139321AA03F0BAFF00287FF498
:1023500097AC239C139B0DF1B80ACDE4049908981F
:1023600021AA03F0ADFF00287FF48AAC239C0DF175
:10237000B80AD3E4102D229B044F25DDDDF8208020
:10238000DDF81090102608E0D8E10008C8E1000848
:10239000103D102D0AF1080A16DD01331034072B09
:1023A000CAE90076CDE92234F2DD21AA4946404649
:1023B00003F086FF00287FF463AC103D102DDDE9AB
:1023C00022340DF1B80AE8DC01332C44072BCAE9AA
:1023D0000075CDE922347FF7C7AC0499089821AA8B
:1023E00003F06EFF00287FF44BAC239CBCE41B99E8
:1023F000002940F38A820B9F0E9B9F42A8BF1F4675
:10240000002F0BDD229B01333C44072BCAE9005708
:102410002394229300F3C9830AF1080A0B9E002F2C
:10242000A8BFF61B002E00F374811B9B0E9A9342EB
:10243000C0F29E81029AD00700F19A810E9A0B9900
:10244000D31A561A9E42A8BF1E46002E0EDD229AAF
:10245000CAF8046001320D443444072ACAF8005017
:102460002394229200F3AD830AF1080A002EACBF38
:102470009D1B1D46002D7FF76EAC102D229BB84F83
:102480007FF7C1AEDDF82080DDF81090102605E062
:102490000AF1080A103D102D7FF7B5AE0133103454
:1024A000072BCAE90076CDE92234F1DD21AA49469D
:1024B000404603F005FF00287FF4E2ABDDE922345B
:1024C0000DF1B80AE6E7029BD9073FF5BEAE01233E
:1024D000072ECDE92264CAF80050CAF804307FF70D
:1024E000E5AE0499089821AA03F0EAFE00287FF4DB
:1024F000C7ABDDE922640DF1B808D7E6CDF81C9032
:102500002EADFFF789BB0E9B012B7FF7CFAE112BB2
:10251000934F40F38982DDF820A0102507E008F1F1
:102520000808A9F11009B9F1100F40F37D820136B6
:102530001034072EC8E90075CDE92264EFDD049957
:1025400021AA504603F0BCFE00287FF499ABDDE9D8
:1025500022640DF1B808E4E70499089821AA03F071
:10256000AFFE00287FF48CAB239C0DF1B80AFFF777
:10257000DFBB029BDD077FF5EEAB58E509939BF8C7
:102580000030FFF731BA2EADFFF746BB17F040021F
:102590001CBF0A469BB20121FFF70EBBDDE90C010F
:1025A00002460B4605F0A6FC002840F06E83B9F108
:1025B000FF3F28F0200600F01383472E04D1B9F125
:1025C000000F08BF4FF00109DDE90C0147F48072EC
:1025D00000290292C0F2C6829DED0C7B8DED167B28
:1025E00000230A93B8F1650F00F0998200F3D582B9
:1025F000B8F1450F00F093821FAB01931CAB009321
:1026000002219DED160B08981BAB4A4602F0A6FA74
:10261000F907054640F1C08000EB0904DDE9160129
:1026200000220023FEF734FA002840F029821F9B85
:10263000A34206D230215A1C1F9219701F9B9C4244
:10264000F9D81B9A0B925B1B472E0E9300F0A980C2
:10265000B8F1660F40F0BC800B9A07F00103002A26
:1026600043EA090340F35783002B40F034830B9B6C
:10267000039307934FF066080A9B002B00F06C82CF
:102680002D238DF867304FF00009FFF7CDBAFC0617
:102690007DD478067BD5099B069A1B681A80A0E436
:1026A000304B119317F0200200F0BE80099B0733D6
:1026B00023F0070319465A6851F8083B0991F907B6
:1026C00040F1AF8053EA020100F0AB8030218DF879
:1026D00068108DF8698047F002070221FFF76CBA95
:1026E000214B1193DEE70499089821AA03F0E8FD35
:1026F00000287FF4C5AA239C0DF1B80AA5E44B4637
:10270000062B28BF0623194D079309940393FFF75F
:10271000CCBA102E229B124F40F393812246DDF853
:102720002090049C4FF0100805E00AF1080A103EC2
:10273000102E40F3858101331032072BCAE900784F
:10274000CDE92232F1DD21AA2146484603F0B8FD49
:1027500000287FF495AADDE922320DF1B80AE6E7F8
:10276000D8E100081CE7000830E7000844E700084B
:102770000F9A10991444CAE90012229A2394013244
:10278000072A229200F3FC810AF1080A56E6099B07
:10279000069A1B681A6024E41F9B1B1A0E931B9B4E
:1027A0000B930B9BDA1C11DB99450FDB0E9B0B9AED
:1027B000934200F34F82FE070B9B00F1778223EADE
:1027C000E372039207934FF0670855E7A8F10208F8
:1027D0000B9B8DF87480591E00291B91B6BFC3F165
:1027E00001012B232D2309298DF8753000F3538126
:1027F000302330318DF8763004238DF87710129322
:102800000E9A129B012A1344079340F31A82079BE6
:102810000F9A1344079323EAE373039300230B9364
:102820002AE70221FFF7C8B9099951F8043B099139
:1028300017F010017FF443AF17F040021CBF9BB2AA
:102840000A463CE70499089821AA03F039FD0028BC
:102850007FF416AADDE922640DF1B808FFE40499BB
:10286000089821AA03F02CFD00287FF409AADDE9CD
:1028700022640DF1B808FFE4CDE90287BD4E2EAD0C
:102880004FF0050E991841F10001A6FB010727F052
:10289000030000EB9700091A581A9846944662F113
:1028A00000034FF0CC3202FB00F206FB0322A0FB38
:1028B000063003F001070244A7FB0E074018B8F1E9
:1028C0000A0F4FEA530300F130007CF1000C43EA99
:1028D000C27305F8010D4FEA5202D3D2DDE9028737
:1028E0002EAB5B1B02970793FFF796B904990898E4
:1028F000139321AA03F0E4FC00287FF4C1A9239CD0
:10290000139B0DF1B80AFFF7E2B9229B9A4ACAF865
:102910000020013301340122072B23942293CAF8AB
:10292000042000F3A0800AF1080A002946D1029B86
:102930000E9A03F0010313433FF40DAA0F9B109965
:102940001A19CAE90013229B23920133072B229301
:1029500000F3CB800AF1080A0E99CAF8005001333F
:102960008C18072BCDE92234CAF804107FF7F1A99F
:1029700054E40499089821AA03F0A2FC00287FF4EB
:102980007FA9239C0DF1B80AFFF74CBB0898FEF70E
:1029900003FDFEF7DBBF0499089821AA03F090FC21
:1029A00000287FF46DA9239C0DF1B80AFFF7BAB98E
:1029B0002846FEF725FF0346FFF7E9BA0F9B10985C
:1029C0001A19CAE90003229B23920133072B229391
:1029D00000F38B800AF1080A0029BDDA4E4210315B
:1029E000664F80F21681DDF82080DDF8109010240B
:1029F00005E00AF1080A103E102E40F30A81013367
:102A00001032072BCAE90074CDE92232F1DD21AA88
:102A10004946404603F054FC00287FF431A9DDE923
:102A200022320DF1B80AE6E701364C44072ECDE913
:102A30002264C8F80070C8F804907FF735AC50E500
:102A4000144601333444072BCDE92234CAF8007010
:102A5000CAF8046057DC0AF1080AE6E42D248DF870
:102A60006740FFF7C0B90499089821AA03F028FC31
:102A700000287FF405A91B99239C0DF1B80A54E79F
:102A80001B9A0B922346DEE50499089821AA03F0CD
:102A900017FCFFF7F5B80DF18304364E23461846B0
:102AA000A6FB0123DB0803EB8302A1EB42023032D9
:102AB00000F8012C0A46632A194600F1FF33EEDCC8
:102AC000303103F8011C831EA34280F021810DF1F7
:102AD000750213F8011B02F8011FA342F9D13EABA6
:102AE000181AA0F1710312938AE60499089821AA92
:102AF00003F0E6FB00287FF4C3A8DDE922321B992E
:102B00000DF1B80A68E70499089821AA03F0D8FBE8
:102B100000287FF4B5A8239C0DF1B80A85E409F1DB
:102B2000010303930221039C08981FAB01931CAB84
:102B3000009322469DED160B1BAB02F00FF8B8F187
:102B4000660F054604447FF469AD2B78302B00F006
:102B50008E801B9B1C4461E5DDF828909DF8674042
:102B6000FFF761B801F1004317932D2316900A93E4
:102B700038E500BFCDCCCCCC4CE70008D8E100084C
:102B80000499089821AA03F09BFB00287FF478A8F9
:102B90001B9B239C0DF1B80A50E4B8F1660F7FF43B
:102BA0002BADCDF80C900321BDE70499089821AA1C
:102BB00003F086FB00287FF463A8239C0DF1B80A7C
:102BC0002CE40499089821AA03F07AFB00287FF4EA
:102BD00057A81B9B0E9A239CD31A0DF1B80A45E403
:102BE0004FF00609F0E44FF0FF330693FFF74DB8BE
:102BF0000994CDF80C90CDF81C909DF86740029791
:102C000081460B90FFF70FB893464FF00009FEF78F
:102C1000EEBE01333244072BCDE92232CAF80070F0
:102C2000CAF804607FF796AE0499089821AA03F0C9
:102C300047FB00287FF424A8DDE922320DF1B80A11
:102C40008AE617F001020B927FF4E1AD23EAE37309
:102C5000039311E5DDE90E3213440B9A0793002A22
:102C60002DDD23EAE37303934FF0670804E5DDE904
:102C7000160100220023FDF70BFF002837D01B9B15
:102C80000B931C44631B0E93E6E40D9B2B4D002B12
:102C9000B8BF2D2427F080030293A8BF9DF867409A
:102CA000274BB8BF8DF86740FFF7A2B80F9A1344BF
:102CB000079323EAE37303934FF06708DCE40B9B6D
:102CC000079AC3F101031A4422EAE27307920393BD
:102CD0004FF06708D0E40F9B09EB030808EB0203F1
:102CE000079323EAE37303934FF06608C4E4039B5E
:102CF000C3F101031B931C4490E409999BF8013034
:102D000051F8049B0991934649EAE979FEF76CBEB4
:102D10000223129374E52BB9012303934FF0660845
:102D20000793A9E40F9B03F1010808EB090307933C
:102D300023EAE37303934FF066089DE418E7000865
:102D400014E7000810B4054C8446134620685DF86B
:102D5000044B0A466146FEF7E3BD00BF00000020B9
:102D600070B50C468989ADF58D6D21F00201ADF885
:102D70000C101AA9009104914FF480610291059101
:102D8000616E1991E189ADF80E10E1690791616AF0
:102D900009910021069169460646FEF7C1FD051E10
:102DA00007DB6946304601F0DFFA002818BF4FF014
:102DB000FF35BDF80C305B0603D5A38943F0400313
:102DC000A38128460DF58D6D70BD00BF0000000089
:102DD00001F0FF01102A2BDB10F0070F08D010F8CC
:102DE000013B013A8B422DD010F0070F42B3F6D1D0
:102DF000F0B441EA012141EA014122F007047FF0E9
:102E000000070023F0E80256083C85EA010586EA3F
:102E1000010685FA47F5A3FA87F586FA47F6A5FA7B
:102E200087F68EB9EED1F0BC01F0FF0102F0070287
:102E300032B110F8013B013A83EA010313B1F8D132
:102E40000020704701387047002D06BF3546033813
:102E5000073815F0010F07D1013015F4807F02BF4C
:102E6000013015F4C03F0130F0BC0138704700BF9D
:102E70002DE9F04FBFB00C46079192460993089098
:102E800003F0B2FF036810931846FEF7B9FCA3895C
:102E90000F901E0603D52369002B00F0A8869FED36
:102EA000A47B0023CDE92233CDE911338DED0C7BDA
:102EB0002EAA0E93219291460593D3469BF800309B
:102EC000002B00F042815C4604E014F8013F002B27
:102ED00000F01981252BF8D1B4EB0B0540F01681D9
:102EE0002378002B00F031814FF000038DF867301C
:102EF00000276378049704F1010B4FF0FF3A0BF1C0
:102F0000010B9846A8F12003582B00F22B81DFE833
:102F100013F05202290129014D0229012901290139
:102F20002901290129011502470229012002250250
:102F3000290142025900590059005900590059000D
:102F400059005900590029012901290129012901A4
:102F5000290129012901290129016800A401290168
:102F6000A40129012901290129017D022901290141
:102F7000950029012901290129012901A60029011A
:102F800029014606290129012901290129012901CF
:102F900029012901290129016F026A00A401A40164
:102FA000A4016A026A00290129015D022901B9020E
:102FB0009700A802A302290182022901A800290181
:102FC00029016606A8F1300300221BF8018B02EBF1
:102FD000820203EB4202A8F13003092BF5D90492D7
:102FE00090E747F01007BD0640F17781099B073352
:102FF00023F007031A46596852F8083B09920A461B
:103000000029C0F29581BAF1000F9DF8674007DBF7
:1030100027F08001029153EA020100F0B283029F7F
:103020000A2B72F1000180F06D8630338DF8B730D5
:103030000123029706930DF1B70550E047F0100702
:1030400017F0200200F06081099B073323F007038B
:1030500019465A6851F8083B099100210FE047F0E2
:10306000100717F0200200F04581099B073323F079
:10307000070319465A6851F8083B099101210024B9
:10308000BAF1000F8DF8674007DB27F0800002904F
:1030900053EA020000F07683029F0129C0D0022982
:1030A00000F0F1822EAD03F00701DB0843EA427322
:1030B000D208303153EA0206284605F8011DF2D144
:1030C000FB0740F1EE82302900F0EB82302302381A
:1030D00005F8013C2EAB1B1A029706930546069B8A
:1030E0005345B8BF5346039300230B9314B1039B7E
:1030F00001330393029B13F0020345D0039B023379
:103100000393022340E0B4EB0B051ED0239B2B441A
:103110002393229B0133072BC9E900B522930BDCD3
:1031200009F10809059B2B440593D9E6AFF300800C
:103130000000000000000000DDE9071021AA03F0F4
:1031400081F830B90DF1B809ECE7239B002B40F072
:103150003C87079B9B895B0601F10C8005983FB07B
:10316000BDE8F08FB8F1000FEFD000238DF8673085
:1031700001238DF890800393069324AD4FF0000A4D
:103180000297CDF82CA05346029A239C12F0840299
:103190000A9205D1DDE90312561A002E00F30483CA
:1031A0009DF867208AB1229A0DF16701013201343E
:1031B000C9F80010072A4FF0010123942292C9F8A0
:1031C000041000F32A8309F1080983B1229A1AA98D
:1031D00001320234C9F80010072A4FF0020123948B
:1031E0002292C9F8041000F3268309F108090A9B0A
:1031F000802B00F0BD81069BAAEB0306002E00F396
:10320000F981029BDE0500F14A81069BC9F8043072
:103210001C44229BC9F800500133072B23942293AE
:1032200000F3588209F10809029B5A0705D5DDE928
:1032300003239D1A002D00F30A83DDE9042303997B
:103240008A42ACBF9B185B180593002C40F02E827D
:10325000002322930DF1B80930E6099B073323F0D0
:103260000703B3EC027B55EC174B099325F00043A1
:1032700015938DED147ADDE91401B74B4FF0FF3251
:103280008DED0C7B04F036FE002840F01084DDE963
:103290001401B14B4FF0FF32FDF70EFC002840F057
:1032A00006840022002320462946FDF7FBFB002868
:1032B00040F025869DF86740A84D27F080030293D3
:1032C000A74BB8F1470FD8BF1D464FF0000A0323A4
:1032D00003930693CDF82CA008E7099AFC0652F850
:1032E000043B09921FD478061DD543F3C032114622
:1032F0001BB285E6099951F8043B099117F01001BA
:1033000000F0CD830121BAE6099951F8043B0991F7
:1033100017F010017FF4A1AE17F040023FF49DAE0C
:103320000A469BB299E6DA1711460029BFF66BAE42
:103330005B4262EB42022D240121A1E6099B53F876
:10334000042B0492002A80F2A283049A0993524229
:1033500004929BF8003047F00407D0E55A4612F873
:10336000018BB8F12A0F00F04E87A8F13003092B2A
:1033700098BF4FF0000A00F2B98612F8018B0AEBF1
:103380008A0A03EB4A0AA8F13003092BF5D94AEA65
:10339000EA7A9346B6E59BF8003047F08007AEE541
:1033A0002B238DF867309BF80030A8E59BF80030A0
:1033B00047F00107A3E59DF867209BF80030002A3D
:1033C0007FF49DAD20228DF8672098E59BF80030B2
:1033D0006C2B03BF9BF8013047F020070BF1010B6A
:1033E00047F010078BE59BF8003047F0400786E573
:1033F000099B00228DF8672053F8042B09930123C1
:103400008DF890200393069324ADB7E69BF8003027
:1034100047F0080773E5099C54F8045B00268DF813
:103420006760002D00F01285BAF1000FC0F21A8417
:10343000524631462846FFF7CBFC002800F045866F
:10344000431B069323EAE3730994B2469DF8674051
:10345000029703930B9649E69BF8003047F020074C
:103460004DE5099A52F8043B099247F63002ADF84F
:1034700068203C4A119247F00207002202214FF0D7
:103480007808FCE5BD0640F18183099B059A1B681D
:103490001A60D2175A60099B043309930EE5B8F1FC
:1034A000650F40F32381DDE90C0100220023FDF7C5
:1034B000EFFA002800F00782229B2B4AC9F800206F
:1034C000013301340122072B23942293C9F80420ED
:1034D00000F3958409F108091B9B0E9A934203DBC4
:1034E000029BDD077FF5A0AE0F9B109A1C44C9E933
:1034F0000023229B23940133072B229300F399840A
:1035000009F108090E9B5D1E002D7FF78DAE102D71
:10351000229B164F40F3D380DDE907A8102605E073
:1035200009F10809103D102D40F3C9800133103412
:10353000072BC9E90076CDE92234F1DD21AA5146F5
:10354000404602F07FFE00287FF403AEDDE922341E
:103550000DF1B809E6E700BFFFFFEF7F10E70008B5
:103560000CE7000830E700084CE70008F8E1000825
:10357000DDE903239E1A002E7FF73DAE102E229B1D
:10358000B74F24DD4A462146A946DDE9075404E049
:10359000103E102E02F1080216DD0133103110200A
:1035A000072BCDE9223117605060F1DD21AA2946B1
:1035B000204602F047FE00287FF4CBAD103E102ECF
:1035C000DDE922312EAAE8DC4D460C469146013356
:1035D0003444072BCDE92234C9F80070C9F80460DF
:1035E00000F31A84069BAAEB0306002E09F10809D2
:1035F0007FF707AE102E229B994F2CDD4A462146BD
:10360000B1464FF0100A2E46DDE9075406E0A9F155
:103610001009B9F1100F02F1080218DD01339048CA
:103620001031072BC2E9000ACDE92231EFDD21AAD2
:103630002946204602F006FE00287FF48AADA9F153
:103640001009B9F1100FDDE922312EAAE6DC35466A
:103650000C464E46914601333444072BCDE92234C3
:10366000C9F80070C9F8046000F3EA8109F108099B
:10367000C7E50129029F4FF000033FF4D6AC0229B1
:103680001A467FF40FAD11982EAD03F00F011B0900
:10369000415C05F8011D43EA0273120953EA020175
:1036A000F3D12EAB5B1B0297069318E5DDE90710FB
:1036B00021AA02F0C7FD00283FF4CAAD49E5013355
:1036C0002C44072BC9F80070C9F80450CDE9223406
:1036D0007FF7A8ADDDE9071021AA02F0B3FD0028AD
:1036E0007FF437AD239C0DF1B8099DE50E9B229E1A
:1036F000012B04F1010406F1010609F1080840F369
:103700005B810123072ECDE92264C9F80050C9F876
:10371000043000F3A2810F9B109A01361C44072E3F
:10372000C8E90023CDE9226400F3A48108F1080868
:103730000E9BDDE90C0103F1FF3900220023FDF7A8
:10374000A7F9002840F05381013601354C44072E7B
:10375000CDE92264C8F80050C8F8049000F33A811B
:1037600008F10808129BC8F8043001361C44072EE3
:103770001DABCDE92264C8F80030ABDC08F10809C4
:1037800052E50121BAF1000F7FF473AF002940F038
:103790000E8117F00103069300F07E8130238DF82F
:1037A000B7300DF1B7059AE4102E229A2D4F26DD81
:1037B00049462046A9461393DDE9075404E0103E2C
:1037C000102E01F1080116DD013210301023072AF6
:1037D000CDE922200F604B60F1DD21AA2946204669
:1037E00002F030FD00287FF4B4AC103E102EDDE96D
:1037F00022202EA9E8DC139B4D460446894601325F
:103800003444072ACDE92224C9F80070C9F80460BD
:1038100000F3B28209F10809C2E4DDE9071021AA28
:10382000139302F00FFD00287FF493AC239C139BAD
:103830000DF1B809C9E4DDE9071021AA02F002FD83
:1038400000287FF486AC239C0DF1B809CFE4102D3D
:10385000229B044F24DDDDE907A8102609E000BF04
:10386000F8E10008E8E10008103D102D09F1080911
:1038700016DD01331034072BC9E90076CDE9223477
:10388000F2DD21AA5146404602F0DCFC00287FF41C
:1038900060AC103D102DDDE922340DF1B809E8DCF3
:1038A00001332C44072BC9E90075CDE922347FF799
:1038B000C4ACDDE9071021AA02F0C4FC00287FF4A3
:1038C00048AC239CB9E41B99002940F364820B9F08
:1038D0000E9B9F42A8BF1F46002F0BDD229B01338A
:1038E0003C44072BC9E900572394229300F3CF836C
:1038F00009F108090B9E002FA8BFF61B002E00F34C
:1039000085811B9B0E9A934280F26C810F9A1099CD
:103910001444C9E90012229A23940132072A229200
:1039200000F3F28209F108090E9A0B99D31A561A7C
:103930009E42A8BF1E46002E0EDD229AC9F80460E2
:1039400001320D443444072AC9F8005023942292CE
:1039500000F3A98309F10809002EACBF9D1B1D4689
:10396000002D7FF761AC102D229BBB4F7FF7A7AED8
:10397000DDE907A8102605E009F10809103D102D22
:103980007FF79DAE01331034072BC9E90076CDE9EE
:103990002234F1DD21AA5146404602F053FC0028B2
:1039A0007FF4D7ABDDE922340DF1B809E6E7CDF8B5
:1039B00018A02EADFFF793BB029BD9073FF5A1AE30
:1039C0000123072ECDE92264C9F80050C9F804305C
:1039D0007FF7C8AEDDE9071021AA02F033FC00280A
:1039E0007FF4B7ABDDE922640DF1B808BAE60E9BAF
:1039F000012B7FF7B7AE112B974F40F36582DDF8AF
:103A000020A0102507E008F10808A9F11009B9F174
:103A1000100F40F3598201361034072EC8E90075A3
:103A2000CDE92264EFDD079921AA504602F00AFC95
:103A300000287FF48EABDDE922640DF1B808E4E7DD
:103A4000DDE9071021AA02F0FDFB00287FF481AB1D
:103A5000239C0DF1B809FFF7D4BBDDE9071021AABB
:103A600002F0F0FB00287FF474ABDDE922640DF175
:103A7000B80850E6DDE9071021AA02F0E3FB0028B0
:103A80007FF467ABDDE922640DF1B80850E60993D5
:103A90009BF80030FFF733BA2EADFFF720BB17F0CD
:103AA00040021CBF0A469BB20121FFF7E8BADDE9DC
:103AB0000C0102460B4604F01DFA002840F05F831B
:103AC000BAF1FF3F28F0200600F0FC82472E04D117
:103AD000BAF1000F08BF4FF0010ADDE90C0147F40D
:103AE000807200290292C0F229829DED0C7B8DED3F
:103AF000167B00230A93B8F1650F00F0F28200F301
:103B00002482B8F1450F00F0EC821FAB01931CAB8F
:103B1000009302219DED160B08981BAB524601F055
:103B20001DF8F907054640F1A88000EB0A04DDE91D
:103B3000160100220023FCF7ABFF002840F025828D
:103B40001F9BA34206D230215A1C1F9219701F9B43
:103B50009C42F9D81B9A0B925B1B472E0E9300F0E8
:103B60009180B8F1660F40F093800B9A07F0010343
:103B7000002A43EA0A0340F36182002B40F01983D4
:103B80000B9B039306934FF0660814E2FC066FD478
:103B900078066DD5099B059A1B681A807BE42F4B2C
:103BA000119317F0200200F09F80099B073323F048
:103BB000070319465A6851F8083B0991F90740F183
:103BC000908053EA020100F08C8030218DF868105B
:103BD0008DF8698047F002070221FFF750BA204BA9
:103BE0001193DEE7029AD0077FF59EAE8EE6089825
:103BF000402100F073FC079B18601861002800F05A
:103C0000B682079A40235361FFF749B9102E229BD1
:103C1000114F40F3668122464FF01008DDE9074A54
:103C200005E009F10809103E102E40F359810133D7
:103C30001032072BC9E90078CDE92232F1DD21AA43
:103C40002146504602F0FEFA00287FF482AADDE900
:103C500022320DF1B809E6E7F8E100081CE7000898
:103C600030E700082846FDF7CBFD0346FFF7E9BB28
:103C7000099B059A1B681A600DE41F9B1B1A0E9383
:103C80001B9B0B930B9BDA1C80F28381A8F102082B
:103C90000B9B8DF87480591E00291B91B6BFC3F190
:103CA00001012B232D2309298DF8753000F39C8108
:103CB000302330318DF8763004238DF8771012934D
:103CC0000E9A129B012A1344069340F31482069B1A
:103CD0000F9A1344069323EAE373039300230B9391
:103CE00069E10221FFF7CBB9099951F8043B099129
:103CF00017F010017FF462AF17F040021CBF9BB2B7
:103D00000A465BE7CDE90287B34E2EAD4FF0050EB4
:103D1000991841F10001A6FB010727F0030000EB11
:103D20009700091A581A9846944662F100034FF01A
:103D3000CC3202FB00F206FB0322A0FB063003F0AC
:103D400001070244A7FB0E074018B8F10A0F4FEA1B
:103D5000530300F130007CF1000C43EAC27305F814
:103D6000010D4FEA5202D3D2DDE902872EAB5B1B75
:103D700002970693FFF7B3B9DDE9071021AA139361
:103D800002F060FA00287FF4E4A9239C139B0DF154
:103D9000B809FFF705BA229B904AC9F80020013301
:103DA00001340122072B23942293C9F8042000F345
:103DB000B88009F10809002952D1029B0E9A03F03C
:103DC000010313433FF430AA0F9B10991A19C9E954
:103DD0000013229B23920133072B229300F3378198
:103DE00009F108090E99C9F8005001338C18072B06
:103DF000CDE92234C9F804107FF714AA6AE4DDE99A
:103E0000071021AA02F01EFA00287FF4A2A9239C21
:103E10000DF1B809FFF760BBDDE9071021AA02F038
:103E200011FA00287FF495A9239C0DF1B809FFF73A
:103E3000E2B9DDE9071021AA02F004FA00287FF4B4
:103E400088A9239C0DF1B809FFF75CBB5346062BEC
:103E500028BF0623624D069309940393FFF78EB99A
:103E60000F9B10981A19C9E90003229B2392013372
:103E7000072B229300F3EB8009F108090029B1DA3E
:103E80004E421031574F80F23F81DDE907A81024E0
:103E900005E009F10809103E102E40F33581013389
:103EA0001032072BC9E90074CDE92232F1DD21AAD5
:103EB0005146404602F0C6F900287FF44AA9DDE9E0
:103EC00022320DF1B809E6E701364C44072ECDE960
:103ED0002264C8F80070C8F804907FF741AC79E517
:103EE000144601333444072BCDE92234C9F800705D
:103EF000C9F8046000F3B98009F1080901E52D242F
:103F00008DF86740FFF7D8B9DDE9071021AA02F064
:103F100099F900287FF41DA91B9B239C0DF1B8097A
:103F200002E5DDE9071021AA02F08CF900287FF4F0
:103F300010A91B99239C0DF1B8093CE701F100433E
:103F400017932D2316900A93D5E5B8F1660F7FF4E9
:103F5000DCADCDF80CA00321039C08981FAB0193A6
:103F60001CAB009322469DED160B1BAB00F0F6FD3B
:103F7000B8F1660F054604447FF4D9AD2B78302B99
:103F800000F0E7801B9B1C44D1E51B9A0B92234653
:103F9000E2E59A45FFF67AAE0E9B0B9A934200F348
:103FA000CB80FE070B9B00F1FB8023EAE3720392B8
:103FB00006934FF067080A9B002B62D02D238DF8E3
:103FC00067304FF0000AFFF792B8DDE9071021AA29
:103FD00002F038F9FFF7BDB8CDCCCCCC4CE70008E7
:103FE00044E70008F8E100080DF183048D4E2346F4
:103FF0001846A6FB0123DB0803EB8302A1EB420278
:10400000303200F8012C0A46632A194600F1FF33CA
:10401000EEDC303103F8011C831EA34280F0FE80E9
:104020000DF1750213F8011B02F8011FA342F9D12B
:104030003EAB181AA0F17103129341E6002B40F039
:10404000D080012303934FF066080693B3E7DDE9C0
:10405000071021AA02F0F6F800287FF47AA8DDE91B
:1040600022321B990DF1B80908E7DDE9071021AAF2
:1040700002F0E8F800287FF46CA8239C0DF1B80941
:104080003FE4DDF828A09DF86740FFF72FB8DDE991
:10409000071021AA02F0D6F800287FF45AA8239C22
:1040A0000DF1B80926E4DDE9071021AA02F0CAF8EB
:1040B00000287FF44EA81B9B0E9A239CD31A0DF167
:1040C000B80949E44FF0060A07E50994CDF80CA0B9
:1040D000CDF818A09DF86740029782460B90FFF735
:1040E00005B80AF101030393022135E793464FF027
:1040F000000AFEF707BF17F001020B927FF4E7AD4D
:1041000023EAE373039356E701333244072BCDE9E7
:104110002232C9F80070C9F804607FF761AEDDE9AA
:10412000071021AA02F08EF800287FF412A8DDE91A
:1041300022320DF1B80955E6DDE90E3213440B9A2F
:104140000693002A41DD23EAE37303934FF06708E7
:1041500031E7DDE9160100220023FCF799FC002875
:104160004BD01B9B0B931C44631B0E93FDE4089ADE
:104170000C2313604FF0FF330593FEF7EFBF0D9B49
:10418000294D002BB8BF2D2427F080030293A8BF30
:104190009DF86740254BB8BF8DF86740FFF791B891
:1041A0000F9A1344069323EAE37303934FF06708CF
:1041B00001E70F9B0AEB030808EB0203069323EACF
:1041C000E37303934FF06608F5E60B9B069AC3F181
:1041D00001031A4422EAE273069203934FF0670840
:1041E000E9E60F9B03F1010808EB0A03069323EAB3
:1041F000E37303934FF06608DDE6039BC3F101030D
:104200001B931C4493E409999BF8013051F804ABCB
:10421000099193464AEAEA7AFEF771BE02231293A5
:104220004EE500BFCDCCCCCC18E7000814E7000861
:10423000B1F90C202DE9F04116070C4680464ED40A
:10424000496842F400630029A38163DDA56A002D5B
:1042500042D0002112F48052D8F80060C8F8001053
:10426000E16964D101234046A847451C02466ED04F
:10427000B4F90C30A56AE169580705D56368D21A0C
:10428000236B0BB1E36BD21A00234046A847431CB3
:104290004FD1D8F80010B4F90C301D2940D8314A5C
:1042A000CA40D7073CD52269226023F40062A2816C
:1042B000DD044FF00002626001D5002945D0216B7A
:1042C000C8F8006041B104F14003994202D0404671
:1042D00001F044FC002323630020BDE8F0810E6957
:1042E000002EF9D00D680E6092070CBF4B690023B9
:1042F000AD1B8B600BE02B463246E169676A404696
:10430000B847B0F1000CA5EB0C05664406DD002DA6
:10431000F1DCE1E7E16B002998DCDDE7B4F90C3072
:1043200043F04003A3814FF0FF30BDE8F081226DE0
:10433000A2E7B4F90C302269226023F40062A28162
:10434000DB044FF000026260B9D52065B7E7D8F80A
:104350000030002B8CD01D2B01D0162BDED1C8F8DD
:104360000060B9E70100402010B5044682B008B1F2
:10437000436B53B1B1F90C0008B902B010BD20462F
:1043800002B0BDE81040FFF753BF0191FDF704F8FC
:104390000199EFE7A0B138B50C4B1D6804460DB18B
:1043A0006B6B4BB1B4F90C0000B938BD21462846FF
:1043B000BDE83840FFF73CBF2846FCF7EDFFF1E7CA
:1043C000034A04490448FDF787BA00BF00000020F3
:1043D00028010020694300080800002088420ED907
:1043E0008B1883420BD900EB020C002A6ED0624678
:1043F00013F801CD02F801CD9942F9D170470F2A87
:104400000FD8034602F1FF3C002A5FD00CF1010CEB
:10441000013B8C4411F8012B03F8012F6145F9D1C0
:10442000704740EA01039B0751D1A2F1100370B518
:1044300001F1200C23F00F0501F1100E00F1100422
:10444000AC441B095EF8105C44F8105C5EF80C5C30
:1044500044F80C5C5EF8085C44F8085C5EF8045CA8
:1044600044F8045C0EF1100EE64504F11004E9D1A5
:10447000013312F00C0F01EB031102F00F0400EBFB
:10448000031328D0043C24F003064FEA940C1E4486
:104490001C1F8E465EF8045B44F8045FB442F9D1F9
:1044A0000CF1010402F0030203EB840301EB84012D
:1044B00002F1FF3C4AB10CF1010C013B8C4411F8B4
:1044C000012B03F8012F6145F9D170BD704702F14E
:1044D000FF3C03469AE72246EAE700BF2DE9F04F8A
:1044E00001F10B05162D83B0064623D8102900F2E2
:1044F000AF8001F0A3FE102518230220C04F3B44DB
:10450000A3F108025C68944200F024816368E268C9
:10451000A16823F00303CA602344304691605A68BF
:1045200042F001025A6001F08BFE0834204603B0CD
:10453000BDE8F08F35F0070500F18A80A94200F24E
:10454000878001F07BFEB5F5FC7FC0F06B816B0AC4
:1045500000F08280042B00F22381AB0903F13900C3
:1045600003F1380EC300A64F3B44A3F1080C5C686E
:10457000A44507D10DE0002AE16880F2E5808C4572
:1045800007D00C46636823F003035A1B0F2AF2DDA1
:104590007046DFF870823C69444500F0C280636871
:1045A00023F0030CACEB05030F2B00F33F81002B32
:1045B000C7E9048880F22A81BCF5007FD7F804E0BF
:1045C00080F0CE804FEADC0101314FEA5C1C012310
:1045D00003FA0CF357F83120A2604EEA030E07EB02
:1045E000C103083BE360C7F804E047F83140D460FA
:1045F00083104FF0010C0CFA03FCF44532D81CEA8E
:104600000E0F08D120F003004FEA4C0C1CEA0E0FED
:1046100000F10400F8D007EBC00AD6468146DEF868
:104620000C300BE0596821F003014A1B0F2A1C468D
:10463000DB6800F3C180002A80F2D5809E45F1D16D
:1046400009F1010919F0030F0EF1080EE7D116E187
:104650000C233360002469E74FF4007340204FF0CF
:104660003F0E80E7BC68636823F00309A94503D3C4
:10467000A9EB05030F2B57DCDFF88CB1DBF800202A
:1046800004EB09031032082002EB0508009301F047
:10469000A9FBD7F808140131024605D008F1FF380C
:1046A0008044414201EA080841463046019201F047
:1046B000F5FDB0F1FF3F019A824600F0D280009BE9
:1046C000834200F2CC80DBF804104144CBF80410A4
:1046D000084602F1FF3C40F0F4801AEA0C0F40F06B
:1046E000F080D7F808A0C84448F00100CAF80400D8
:1046F000DBF82C208A42DBF8302038BFCBF82C10B6
:104700008A4238BFCBF83010544620F00308A84541
:10471000A8EB050301D30F2B06DC304601F090FD1A
:1047200098E7D7F804E063E7621943F0010345F026
:10473000010565603046BA60536001F081FD0834C0
:10474000204603B0BDE8F08FA2682344D160304614
:104750008A60E4E6DC68A3427FF4D8AE023018E752
:10476000BCF5206F4FEA5C2272D3142A00F2088154
:1047700002F15C03DB005B32F918FB5808399942FF
:1047800003D1E4E09B68994204D05A6822F0030206
:104790006245F7D8D968C4E902318C60DC6027E74C
:1047A000142B61D9542B00F2F4802B0B03F16F0012
:1047B00003F16E0EC300D6E6D4F808C03046661981
:1047C00045F001056560CCF80C30C3F808C042F034
:1047D0000103C7E90466C6E902887360625001F00C
:1047E0002FFD0834A2E6214430464A6842F0010217
:1047F0004A6054F8082FD3609A6001F021FD95E6D5
:10480000380100204001002050080020A444304618
:10481000DCF8043043F00103CCF8043001F010FD63
:10482000083483E6E80805F1080367E6621943F0F7
:10483000010145F0010565603046C7E90422C2E97F
:104840000288516044F80C3001F0FAFC08346DE63F
:104850004FEA9C1202F13903DB0038328CE7BC428C
:1048600028D0BC68606850E703F15C0003F15B0E80
:10487000C30078E65AF80839534540F0D78010F065
:10488000030F00F1FF30F5D17B6823EA0C037B6056
:104890004FEA4C0C9C453FF6E5AEBCF1000F04D14D
:1048A000E0E64FEA4C0C09F104091CEA030FF8D0CA
:1048B0004846B0E6DBF804004044CBF8040002F1BF
:1048C000FF3CD7F8081401316DD0009BAAEB03031D
:1048D0001844CBF804001AF00703009341D0C3F149
:1048E00008018A44D0440A4408EA0C01521A02EA38
:1048F0000C013046019101F0D1FC421C6FD00199AE
:10490000A0EB0A0000EB0108DBF80420C7F808A0C0
:1049100048F001001144BC42CAF80400CBF804106E
:104920003FF4E6AEB9F10F0F40D96268A9F10C006F
:1049300020F0070002F00102024362600523221802
:104940000F28C2E9013352D8DAF80400D0E69210F9
:104950004FF0010C0CFA02F24EEA020EC7F804E026
:1049600019E70AEB080101EA0C01521A02EA0C01EC
:104970003046019101F092FC431CC0D10099C3E77D
:10498000542A17D84FEA1C3202F16F03DB006E3253
:10499000F2E6B3F5AA7F17D8EB0B03F1780003F129
:1049A000770EC300DFE5C7F808A494E70123CAF82F
:1049B0000430B2E6B2F5AA7F23D84FEADC3202F126
:1049C0007803DB007732D7E640F25452934223D883
:1049D000AB0C03F17D0003F17C0EC300C3E5009B2B
:1049E000A3F108029044A8EB0A0800218CE704F127
:1049F0000801304601F0B2F8DBF80410D7F808A03F
:104A0000A2E740F254539A420CD84FEA9C4202F17A
:104A10007D03DB007C32AFE64FF47E737F204FF0E6
:104A20007E0EA0E54FF47E737E22A5E67B682FE71D
:104A30002DE9F04F03690C69A34283B0C0F28A806C
:104A4000013C01F1140500F1140855F8243058F820
:104A5000242001339A428E4681464FEA840105EBB9
:104A6000840708EB840AB2FBF3F63AD3CDE90015CC
:104A70000022AC46404613465CF8041B05681FFA4A
:104A800081FB06FB0B22090C4FEA124B06FB01BB14
:104A900092B2A9B2891A19441FFA8BF3C3EB2143CE
:104AA00003EB154389B241EA0341674540F8041B13
:104AB0004FEA1B424FEA2343DED2DDE9001558F8E6
:104AC000013073B9AAF1040AD04504D307E0D045F8
:104AD00004F1FF3403D25AF80439002BF7D0C9F897
:104AE00010407146484601F003FF00282EDB414686
:104AF000002255F8040BD1F800C01FFA80FE1FFAFF
:104B00008CF3A3EB0E031344020CC2EB234202EB23
:104B10001C429BB243EA0243AF4241F8043B4FEAD6
:104B20002242E6D258F8242008EB84036AB9043BF9
:104B3000434504D807E0984504F1FF3403D253F805
:104B40000429002AF7D0C9F810400136304603B0D6
:104B5000BDE8F08F002003B0BDE8F08F2DE9F04FE5
:104B60009DB0CDE90A320291816B269D04908DEDB6
:104B7000060B57EC106B49B1C26B4A60012393409E
:104B800004468B6001F0F8FB0023A363B7F1000932
:104B9000B4BF012300232B60774BBCBF29F0004931
:104BA000CDF81C9033EA090300F0AA809DED067B46
:104BB000002251EC170B00238DED007BFBF768FF03
:104BC000804668B10A9A01231360279B13B1279A84
:104BD0006A4B13606A4B059305981DB0BDE8F08FD2
:104BE0009DED000B04981AAA1BA901F0EFFF5FEAE4
:104BF0001955824640F09A80DDE91A85454405F250
:104C00003243202B40F38C83C3F1400309FA03F9AC
:104C100005F2124326FA03F349EA0300FBF756FCB8
:104C20000123013DA1F1F8711293564B0022FBF7CD
:104C30000FFB4BA3D3E90023FBF7C2FC4AA3D3E944
:104C40000023FBF707FB064628460F46FBF74EFC02
:104C500047A3D3E90023FBF7B3FC02460B463046DB
:104C60003946FBF7F7FA06460F46FBF743FF0022EB
:104C700004460990002330463946FBF713FF00280D
:104C800040F02483099CA8EB050808F1FF33162C9B
:104C9000089300F28C813C4B03EBC403D3E900235F
:104CA000DDE90001FBF7FEFE002873D0631E0993C7
:104CB00000231193089B002BC0F27F8100230C93EB
:104CC000099B002B6CDA099B0C9A0D93D21A0C925B
:104CD0005A4200230993029B1092092B6AD8052B94
:104CE00040F32383043B02930025029B023B032BEA
:104CF00000F23886DFE813F070046D04650449049F
:104D00000A9AC9F3130942F20F7359EA06091360AC
:104D10001CD1279B002B00F045861C4B05930833C4
:104D2000279A059813601DB0BDE8F08FDDE90012E9
:104D3000C2F31303084643F07F51CDF84880A5F233
:104D4000FF35DDF8688041F440116EE7279B002BAA
:104D500040F0F6830E4B05933EE700BFAFF30080B3
:104D600061436F63A787D23FB3C8608B288AC63F71
:104D7000FB799F501344D33F0000F07F4DE70008BC
:104D80004CE700080000F83F18E2000850E7000870
:104D90005CE70008B8F1000F40F3A38411900C9079
:104DA000DDE908321344089300231093029B0D920F
:104DB000092B94D90023012502930E954FF0FF3B58
:104DC0000B93049BCDF84CB00021D963049801F0FB
:104DD000ADFA0590002800F0CE85DDE90432BBF184
:104DE0000E0F9A6300F21881002D00F015810D99C5
:104DF000002940F34684B34B01F00F0203EBC203DA
:104E0000C805D3E900894FEA211540F10884AE4B6B
:104E1000DDE90001D3E90823FBF7FCFCCDE914012F
:104E200005F00F0503277DB1A74EE90708D54046D9
:104E30004946D6E90023FBF7C3FB01378046894684
:104E40006D1006F10806F0D142464B46DDE914012B
:104E5000FBF7E0FC80468946119B43B19B4B002247
:104E600040464946FBF71EFE002840F00B853846B9
:104E7000FBF73CFB42464B46FBF7A2FB944B002260
:104E8000FBF7E8F9A1F15073CDE914011593BBF1DB
:104E9000000F00F0A8800D9BCDE918B349464046AD
:104EA000FBF728FE189A874B03EBC20313ED027B36
:104EB00005468DED167BFBF719FB0B46024649466E
:104EC0004046FBF7C5F9059F0E9B30357E1CECB2C2
:104ED000804689463546002B00F06C84DDE91623B8
:104EE0007C490020FBF796FCDDE91423FBF7B0F9C1
:104EF0003C7042464B4604460D46FBF7F1FD002848
:104F000040F0B884CDF850A0CDF858B00027AB469B
:104F1000A246189D2AE00137AF4280F2FD846E4B15
:104F2000504659460022FBF74BFB6B4B0022824652
:104F30008B4640464946FBF743FB89468046FBF7D4
:104F4000D9FD0446FBF7D2FA02460B4640464946D5
:104F5000FBF77EF9303406F8014B52465B4680463B
:104F60008946FBF79FFD002840F0D38442464B461C
:104F700056490020FBF76CF952465B46FBF792FD61
:104F80000028C8D0199BDDF850A0059A374603F1D8
:104F9000010802E0974200F09B843E4617F8013D6D
:104FA000392BF7D00133DBB23B7045467DE101235D
:104FB0001193089B002BBFF681AEC8F101030C933F
:104FC000002308937CE63846FBF790FA42464B46AE
:104FD000FBF7F6FA3E4B0022FBF73CF9A1F15073C8
:104FE000CDE9140115933D4B002240464946FBF79D
:104FF0002FF9DDE9144522462B4606460F46FBF7FE
:105000006FFD002840F0738430463946224605F192
:105010000043FBF747FD28BB1B9B002BC0F2908091
:105020000D9A0E2A00F38C80264B0D9A03EBC203D7
:1050300093ED007B0B9B002B8DED027B19DABBF10E
:10504000000F16DC0ED1254B0022DDE90201FBF733
:10505000B7FA02460B46DDE90001FBF72DFD0028FB
:1050600000F045840023059E00931F460B9BDD4303
:105070002DE2059B5D1CDDE90278DDE900013A4681
:105080004346FBF7C7FBFBF735FD0646FBF72EFA59
:105090003A464346FBF794FA02460B46DDE9000127
:1050A000FBF7D6F8059A06F13003BBF1010F2F4646
:1050B000137000F021830125CDF800A0A846DDE99A
:1050C000029A2BE018E2000808E300080000F03F15
:1050D00000001C400000E03F00002440000014409D
:1050E0004A46534620462946FBF794FBFBF702FD50
:1050F0000646FBF7FBF94A465346FBF761FA08F10F
:1051000001080B46024629462046FBF7A1F806F1A6
:105110003003D84507F8013B00F0EC82844B0022B5
:10512000FBF74EFA0022002304460D46FBF7B0FCC5
:105130000028D5D00D9DDDF800A001353E46B4E035
:105140000E9A002A40F0D8800023109E0C9D0E93EA
:105150001F4665B1089A002A09DD0C99AA42134638
:10516000A8BF2B46C91AED1AD31A0C910893109BAD
:1051700053B10E9B13B1002E40F0F7825146109AA6
:10518000049801F0E3FA82460498012101F0FAF94B
:10519000099B0090002B40F0BE81029B012B40F345
:1051A000D4810120089A104410F01F0000F09B8069
:1051B000C0F12003042B40F3E3810C9BC0F11C00E1
:1051C000034402440C93054408920C9B002B05DD1C
:1051D000514604981A4601F013FB8246089B002BA7
:1051E00005DD009904981A4601F00AFB0090119B16
:1051F000002B40F07581BBF1000F40F34C810E9BFA
:10520000002B40F0A4800D9D0135DDF81480009C3A
:10521000DDF81090012607E0514600230A22484697
:1052200001F0B4F80136824621465046FFF700FCF3
:10523000B34500F1300008F8010BEDDCBBF1000FC5
:10524000059BCCBF5E460126814603EB060B00247E
:1052500051460122049801F0D3FA0099824601F0E8
:1052600047FB002840F3EE81059A02E0934500F0E9
:1052700003825E460BF1FF3B16F8013C392BF5D05B
:1052800001338BF80030DDF810800099404601F0C2
:1052900073F857B12CB1BC4203D02146404601F00F
:1052A0006BF80498394601F067F80498514601F00C
:1052B00063F8002333700A9B1D60279B002B3FF48B
:1052C0008BAC05981E601DB0BDE8F08F2046FBF743
:1052D0000DF932463B46FBF7DBFB00287FF4D2ACEE
:1052E000631E0993CEE41C230C9A1A440C92089A6C
:1052F0001A441D44089268E7029A012A40F3AD81DE
:10530000109B0BF1FF36B342C0F26981BBF1000F75
:10531000A3EB060680F2EF820C9BA3EB0B056CE17E
:10532000C3F1200306FA03F078E40125DDE400BFB1
:10533000000024403946002304980A2201F026F890
:10534000139B002B074640F3FF820D969B46002DD2
:1053500005DD394604982A4601F052FA0746099BB2
:10536000002B40F0E681B846059E731E03EB0B044C
:10537000069B03F00103CDE90B43049C00995046C2
:10538000FFF756FB39468346504601F0B1FA0099C3
:1053900005464246204601F0CDFAC3680BF13009BC
:1053A0000146ABBB0990504601F0A2FA099908905A
:1053B000204600F0E1FF089A002A54D1029B1BB955
:1053C0000C9B002B00F0AE82002D3FDB0B9BB34605
:1053D0009E420BF8019B00F0C381514600230A2234
:1053E000204600F0D3FF4745824639464FF0000380
:1053F0004FF00A02204630D000F0C8FF4146074671
:1054000000230A22204600F0C1FF5E468046B5E731
:10541000049800F0B1FF002D06DB069B03F00102AB
:10542000029B1D432A4329D151460122049801F0D1
:10543000E7F90099824601F05BFA002840F3F68014
:10544000B9F1390F00F049820BF131090D9D06F8D1
:10545000019B3C460135474615E700F097FF5E4645
:10546000074680468AE7002DC0F29382029B1D43C7
:105470000C9B1D4300F08D82002AA7DDB9F1390F86
:1054800000F02B820D9D09F101033C4606F8013B1B
:1054900001354746F7E6029B022B7FF7B0AEBBF122
:1054A000000F40F02581009904985B46052200F02A
:1054B0006DFF01460090504601F01AFA002840F3B3
:1054C0001781059E0D9D312306F8013B013500999A
:1054D000049800F051FF0135002F7FF4E2AEE4E6BE
:1054E0000099504601F004FA0028BFF684AE5146F8
:1054F000002304980D9C0A2200F048FF0E9B661EB4
:105500008246002B7FF416AF139B002B40F31182D1
:105510000D9D9B4679E601461A46049801F016F95E
:10552000029B0090012B6EDD00230993009A136902
:1055300002EB8303186900F0D3FFC0F1200031E6CD
:10554000984B05930333FFF7EBBB069B002B7FF4CF
:1055500028AEDDE90612C2F31303002B7FF421AE5F
:10556000914B134033B10C9B01330C93089B0133D7
:1055700008930123099A0993002A3FF412AED5E754
:105580003FF423AEC0F13C03AEE601230E930B9B28
:105590000D9A134403F1010B5E46012E1393B8BF1D
:1055A0000126172E40F3F981012204235B0003F149
:1055B0001400B042114602F10102F7D9049BD963ED
:1055C00004E401230E930B9E002E36DD1396B346A2
:1055D000E7E700230E93DAE700230E93F3E7109B2F
:1055E000099A1096F31A1A44089B09925B4408938F
:1055F0000C9B1D465B440C9300260498012100F08F
:10560000C1FF0746A5E5069B002B8DD1DDE906010C
:10561000C1F313030A46002BA2D0099086E79DED43
:10562000007B02278DED147BFFF7FDBB7FF40EAFEF
:1056300019F0010F7FF404AF08E701230B939B4699
:10564000FFF7BFBB03D119F0010F7FF40DAE5E462B
:105650001BF8013D302BFAD015E6129A002A00F013
:105660009C8003F23343089A109E1A4408920C9AC5
:1056700015461A440C92C0E7059A31230135137080
:1056800001E600F0FA800D9A484B554205F00F02F2
:1056900003EBC203D3E90023DDE90001FAF790FF31
:1056A0002D11CDE9140100F05881414E002302274D
:1056B00080468946EA0709D5D6E90023404649468F
:1056C000FAF77EFF01378046894601236D1006F107
:1056D0000806EFD1002B7FF4BFABDDE91489FFF79B
:1056E000BBBBC8F1010308900C931190FFF758BBA6
:1056F000059EBBE4DDF800A002460B46FAF7AAFDC2
:105700000D9DCDE90001013502460B46DDE90201A0
:10571000A846FBF7C7F940B9DDE90023DDE902013E
:10572000FBF7B6F918B1F30701D5059A35E43E4603
:10573000BBE57968049800F0F9FD0546002800F003
:1057400021813B6902339A0007F10C010C30FBF711
:1057500077FC04982946012201F052F8804603E6BE
:105760000D9D3C460135474672E5049C394632465C
:10577000204600F0EBFF524601460746204600F067
:105780002FFF51468046204600F0F6FD109B9B1BE4
:10579000C24610933FF4F8ACF0E41A9BC3F1360311
:1057A00061E700BF5CE700080000F07F18E2000836
:1057B00008E30008DDE91623DDE91401FAF700FF2C
:1057C000059B1C70189B012BCDE90E0100F0C380D6
:1057D000189F059B12961F447A4B0022404649466B
:1057E000FAF7EEFE0D460446FBF784F98146FAF718
:1057F0007DFE09F1300902460B4620462946FAF79C
:1058000027FD06F8019BBE4280468946E4D1129DE1
:105810006D4B0022DDE90E01FAF71CFD02460B4636
:1058200040464946FBF75CF900286CD1DDE90E23C0
:1058300065490020FAF70CFD02460B4640464946F2
:10584000FBF730F980B91B9B002BFFF67DAC0D9B5D
:105850000E2B3FF779AC5D4B0D9A03EBC20393ED32
:10586000007B8DED027B06E43E46013F16F8013CCD
:10587000302BF9D0199D013517E5DDE900890227A4
:10588000FFF7EABABBF1000F3FF49DAB139C002C6D
:105890007FF7C2AB0D9B013B00224046494619935E
:1058A000484BFAF78DFE80468946781CFAF71EFEB3
:1058B00042464B46FAF784FE454B0022FAF7CAFCF3
:1058C000A1F15073CDE9140118941593FFF7E6BACE
:1058D00008F101083123FFF767BB0D9D059AB34618
:1058E00039233C460BF8013B01354746C1E4002310
:1058F00000931F46E5E5089B5B4408930C9B1D46FF
:105900005B440C9379E6199B059A03F10108FFF7B4
:1059100044BBDDF850A0ADE7DDF850A0DDF858B08D
:10592000FFF77ABBB9F1390FD7D0002D3FF78CAD17
:105930008CE5029B022B03DC0D9DDDF84CB064E48A
:10594000DDF84CB00D96AAE5029B022BF8DCDDF8E1
:105950004CB00D96FBE437465AE7DDE9148902277F
:10596000FFF77ABA049B0025DD632946184600F04C
:10597000DDFC0590D0B9174B1748002240F2AF115B
:1059800000F0AEFC134B14482A4640F2EF2100F021
:10599000A7FC002A3FF748AD58E5049B0021D963D6
:1059A000FFF714BA0D4B0593FFF716B9DDE9043282
:1059B0009A634FF0FF3301220B9513930E929B468F
:1059C000FFF72ABB000024400000E03F18E2000877
:1059D00000001C4060E7000874E7000850E700087A
:1059E00038B52F4B1B6805460C4613B15A6B002A7D
:1059F0004BD0B4F90C3018071CD5226922B313F030
:105A0000010107D0616900204942A060A1613AB15B
:105A1000002038BD980758BF6169A160002AF7D1FE
:105A2000190658BF1046F4D543F04003A3814FF048
:105A3000FF3038BDD9062CD55A0712D4226943F05D
:105A40000803A381002ADAD103F42071B1F5007FA5
:105A5000D5D02146284601F0CFF9B4F90C3022699F
:105A6000CDE7216B51B104F14002914204D02846A8
:105A700000F074F8B4F90C3000222263226900218E
:105A8000C4E9002123F02403D9E71846FBF784FC7E
:105A9000AFE7092243F040032A60A381C7E700BFB4
:105AA000000000202DE9F84306460820894600F052
:105AB00099F9DFF8A4800546304600F0BFFBD8F81E
:105AC00008305F6827F00307A7F11104A4EB09046D
:105AD0002C44B4FBF5F4013C05FB04F4A54208DCBE
:105AE0000021304600F0DAFBD8F808303B449842F9
